:020000040000FA
:1000000005100130860085142021851020210A2842
:040010000034003484
:0C00140007309F0003138316860185014E
:1000200083128510051005100130860085142021EB
:10003000851020210C308600851420218510202178
:100040003C308600851420218510202131202A2172
:100050007F20000000002A21CD20000000002A217E
:10006000262805102021843086001B21051420211C
:10007000203086001B21453086001B21643086001D
:100080001B21753086001B21613086001B217230D8
:1000900086001B21643086001B216F3086001B21E7
:1000A00005102021C23086001B2105142021433079
:1000B00086001B21653086001B21723086001B21C3
:1000C000763086001B21613086001B216E30860051
:1000D0001B21743086001B21653086001B21733084
:1000E00086001B21123086001B21463086001B2112
:1000F0002E3086001B21203086001B2108000510B1
:100100002021843086001B21051420212030860008
:100110001B21203086001B214D3086001B216930B9
:1001200086001B21633086001B21723086001B2154
:100130006F3086001B21733086001B2105102021A3
:10014000C23086001B2105142021203086001B218F
:10015000203086001B21373086001B21303086007E
:100160001B21303086001B21203086001B214D30A2
:1001700086001B21543086001B21413086001B2144
:10018000123086001B21203086001B212030860083
:100190001B21203086001B210800051020218430FF
:1001A00086001B2105142021413086001B216E3062
:1001B00086001B216E3086001B21793086001B21B2
:1001C000653086001B216F3086001B216E30860053
:1001D0001B21673086001B2105102021C2308600BC
:1001E0001B2105142021423086001B216F30860020
:1001F0001B216E3086001B216A3086001B216F3068
:1002000086001B21753086001B21723086001B2161
:10021000203086001B214E3086001B21693086006D
:100220001B21683086001B21613086001B216F3046
:1002300086001B210800851420218510202108003C
:10024000A0010A30A1005030A000A00B2529A10B6D
:100250002329080000000E30A200A20B2D296730D0
:10026000A4004130A50000002A30A300A30B3629CA
:0A027000A50B3329A40B3129080067
:02400E00393F38
:00000001FF
