:020000040000FA
:1000000005100130860085148E2085108E200A2868
:040010000034003484
:0C00140007309F0003138316860185014E
:1000200083128510051005100130860085148E207E
:1000300085108E200C30860085148E2085108E2031
:100040003C30860085148E2085108E2029208E203D
:10005000262805108E208F308600892005148E20DA
:1000600045308600892064308600892075308600FE
:1000700089206130860089207230860089206430B2
:10008000860089206F308600892005108E20CF30B1
:100090008600892005148E20433086008920653033
:1000A000860089207230860089207630860089207B
:1000B0006130860089206E30860089207430860089
:1000C00089206530860089207330860089202030A1
:1000D0008600892046308600892069308600892084
:1000E000673086008920753086008920653086005B
:1000F00089207230860089206F3086008920613027
:100100008600892005108E2018308600892005146D
:10011000080085148E2085108E200800A0010A306A
:10012000A1003230A000A00B9328A10B9128080059
:02400E00393F38
:00000001FF
